{
  "_format": "hh-sol-artifact-1",
  "contractName": "MyWill",
  "sourceName": "contracts/MyWill.sol",
  "abi": [
    {
      "inputs": [],
      "name": "deleteMyWill",
      "outputs": [
        {
          "internalType": "bool",
          "name": "res",
          "type": "bool"
        }
      ],
      "stateMutability": "payable",
      "type": "function"
    },
    {
      "inputs": [],
      "name": "getMyWill",
      "outputs": [
        {
          "components": [
            {
              "components": [
                {
                  "internalType": "address",
                  "name": "_address",
                  "type": "address"
                },
                {
                  "internalType": "uint256",
                  "name": "amount",
                  "type": "uint256"
                }
              ],
              "internalType": "struct MyWill.participant[]",
              "name": "participants",
              "type": "tuple[]"
            },
            {
              "internalType": "uint256",
              "name": "timestamp",
              "type": "uint256"
            }
          ],
          "internalType": "struct MyWill.owner",
          "name": "",
          "type": "tuple"
        }
      ],
      "stateMutability": "view",
      "type": "function"
    },
    {
      "inputs": [
        {
          "internalType": "address",
          "name": "_addr",
          "type": "address"
        },
        {
          "internalType": "uint256",
          "name": "_amount",
          "type": "uint256"
        }
      ],
      "name": "makeMyWill",
      "outputs": [],
      "stateMutability": "payable",
      "type": "function"
    },
    {
      "inputs": [
        {
          "internalType": "uint256",
          "name": "_timestamp",
          "type": "uint256"
        }
      ],
      "name": "setTimeLimit",
      "outputs": [],
      "stateMutability": "nonpayable",
      "type": "function"
    },
    {
      "inputs": [],
      "name": "transferFunds",
      "outputs": [
        {
          "internalType": "bool",
          "name": "res",
          "type": "bool"
        }
      ],
      "stateMutability": "payable",
      "type": "function"
    },
    {
      "inputs": [],
      "name": "with_drawal",
      "outputs": [
        {
          "internalType": "bool",
          "name": "res",
          "type": "bool"
        }
      ],
      "stateMutability": "payable",
      "type": "function"
    }
  ],
  "bytecode": "0x608060405234801561001057600080fd5b506111ec806100206000396000f3fe6080604052600436106100555760003560e01c80633c68eb811461005a5780633ce9f88e146100785780638ff49e9214610096578063af5a5d97146100b4578063e2889c82146100df578063eebf2fdf14610108575b600080fd5b610062610124565b60405161006f9190610c95565b60405180910390f35b61008061039e565b60405161008d9190610c95565b60405180910390f35b61009e6105b4565b6040516100ab9190610c95565b60405180910390f35b3480156100c057600080fd5b506100c961082e565b6040516100d69190610e25565b60405180910390f35b3480156100eb57600080fd5b5061010660048036038101906101019190610e78565b6109d4565b005b610122600480360381019061011d9190610ed1565b610aa2565b005b6000806000803373ffffffffffffffffffffffffffffffffffffffff1673ffffffffffffffffffffffffffffffffffffffff16815260200190815260200160002060000180549050036101ac576040517f08c379a00000000000000000000000000000000000000000000000000000000081526004016101a390610f6e565b60405180910390fd5b60005b6000803373ffffffffffffffffffffffffffffffffffffffff1673ffffffffffffffffffffffffffffffffffffffff1681526020019081526020016000206000018054905081101561033d576000803373ffffffffffffffffffffffffffffffffffffffff1673ffffffffffffffffffffffffffffffffffffffff168152602001908152602001600020600001818154811061024e5761024d610f8e565b5b906000526020600020906002020160000160009054906101000a900473ffffffffffffffffffffffffffffffffffffffff1673ffffffffffffffffffffffffffffffffffffffff166108fc6000803373ffffffffffffffffffffffffffffffffffffffff1673ffffffffffffffffffffffffffffffffffffffff16815260200190815260200160002060000183815481106102ec576102eb610f8e565b5b9060005260206000209060020201600101549081150290604051600060405180830381858888f19350505050158015610329573d6000803e3d6000fd5b50808061033590610fec565b9150506101af565b506000803373ffffffffffffffffffffffffffffffffffffffff1673ffffffffffffffffffffffffffffffffffffffff1681526020019081526020016000206000808201600061038d9190610bf6565b600182016000905550506001905090565b6000806000803373ffffffffffffffffffffffffffffffffffffffff1673ffffffffffffffffffffffffffffffffffffffff1681526020019081526020016000206000018054905003610426576040517f08c379a000000000000000000000000000000000000000000000000000000000815260040161041d90611080565b60405180910390fd5b600080600090505b6000803373ffffffffffffffffffffffffffffffffffffffff1673ffffffffffffffffffffffffffffffffffffffff168152602001908152602001600020600001805490508110156104ff576000803373ffffffffffffffffffffffffffffffffffffffff1673ffffffffffffffffffffffffffffffffffffffff16815260200190815260200160002060000181815481106104cd576104cc610f8e565b5b906000526020600020906002020160010154826104ea91906110a0565b915080806104f790610fec565b91505061042e565b506000803373ffffffffffffffffffffffffffffffffffffffff1673ffffffffffffffffffffffffffffffffffffffff1681526020019081526020016000206000808201600061054f9190610bf6565b600182016000905550503373ffffffffffffffffffffffffffffffffffffffff166108fc60018361058091906110d4565b9081150290604051600060405180830381858888f193505050501580156105ab573d6000803e3d6000fd5b50600191505090565b6000806000803373ffffffffffffffffffffffffffffffffffffffff1673ffffffffffffffffffffffffffffffffffffffff168152602001908152602001600020600001805490501161063c576040517f08c379a000000000000000000000000000000000000000000000000000000000815260040161063390610f6e565b60405180910390fd5b60005b6000803373ffffffffffffffffffffffffffffffffffffffff1673ffffffffffffffffffffffffffffffffffffffff168152602001908152602001600020600001805490508110156107cd576000803373ffffffffffffffffffffffffffffffffffffffff1673ffffffffffffffffffffffffffffffffffffffff16815260200190815260200160002060000181815481106106de576106dd610f8e565b5b906000526020600020906002020160000160009054906101000a900473ffffffffffffffffffffffffffffffffffffffff1673ffffffffffffffffffffffffffffffffffffffff166108fc6000803373ffffffffffffffffffffffffffffffffffffffff1673ffffffffffffffffffffffffffffffffffffffff168152602001908152602001600020600001838154811061077c5761077b610f8e565b5b9060005260206000209060020201600101549081150290604051600060405180830381858888f193505050501580156107b9573d6000803e3d6000fd5b5080806107c590610fec565b91505061063f565b506000803373ffffffffffffffffffffffffffffffffffffffff1673ffffffffffffffffffffffffffffffffffffffff1681526020019081526020016000206000808201600061081d9190610bf6565b600182016000905550506001905090565b610836610c1a565b60008060003373ffffffffffffffffffffffffffffffffffffffff1673ffffffffffffffffffffffffffffffffffffffff16815260200190815260200160002060000180549050036108bd576040517f08c379a00000000000000000000000000000000000000000000000000000000081526004016108b490610f6e565b60405180910390fd5b6000803373ffffffffffffffffffffffffffffffffffffffff1673ffffffffffffffffffffffffffffffffffffffff16815260200190815260200160002060405180604001604052908160008201805480602002602001604051908101604052809291908181526020016000905b828210156109bd57838290600052602060002090600202016040518060400160405290816000820160009054906101000a900473ffffffffffffffffffffffffffffffffffffffff1673ffffffffffffffffffffffffffffffffffffffff1673ffffffffffffffffffffffffffffffffffffffff1681526020016001820154815250508152602001906001019061092b565b505050508152602001600182015481525050905090565b60008060003373ffffffffffffffffffffffffffffffffffffffff1673ffffffffffffffffffffffffffffffffffffffff168152602001908152602001600020600101541115610a59576040517f08c379a0000000000000000000000000000000000000000000000000000000008152600401610a5090611154565b60405180910390fd5b806000803373ffffffffffffffffffffffffffffffffffffffff1673ffffffffffffffffffffffffffffffffffffffff1681526020019081526020016000206001018190555050565b670de0b6b3a764000081610ab69190611174565b3414610af7576040517f08c379a0000000000000000000000000000000000000000000000000000000008152600401610aee90611080565b60405180910390fd5b6000803373ffffffffffffffffffffffffffffffffffffffff1673ffffffffffffffffffffffffffffffffffffffff16815260200190815260200160002060000160405180604001604052808473ffffffffffffffffffffffffffffffffffffffff168152602001670de0b6b3a764000084610b739190611174565b815250908060018154018082558091505060019003906000526020600020906002020160009091909190915060008201518160000160006101000a81548173ffffffffffffffffffffffffffffffffffffffff021916908373ffffffffffffffffffffffffffffffffffffffff1602179055506020820151816001015550505050565b5080546000825560020290600052602060002090810190610c179190610c34565b50565b604051806040016040528060608152602001600081525090565b5b80821115610c7657600080820160006101000a81549073ffffffffffffffffffffffffffffffffffffffff0219169055600182016000905550600201610c35565b5090565b60008115159050919050565b610c8f81610c7a565b82525050565b6000602082019050610caa6000830184610c86565b92915050565b600081519050919050565b600082825260208201905092915050565b6000819050602082019050919050565b600073ffffffffffffffffffffffffffffffffffffffff82169050919050565b6000610d0782610cdc565b9050919050565b610d1781610cfc565b82525050565b6000819050919050565b610d3081610d1d565b82525050565b604082016000820151610d4c6000850182610d0e565b506020820151610d5f6020850182610d27565b50505050565b6000610d718383610d36565b60408301905092915050565b6000602082019050919050565b6000610d9582610cb0565b610d9f8185610cbb565b9350610daa83610ccc565b8060005b83811015610ddb578151610dc28882610d65565b9750610dcd83610d7d565b925050600181019050610dae565b5085935050505092915050565b60006040830160008301518482036000860152610e058282610d8a565b9150506020830151610e1a6020860182610d27565b508091505092915050565b60006020820190508181036000830152610e3f8184610de8565b905092915050565b600080fd5b610e5581610d1d565b8114610e6057600080fd5b50565b600081359050610e7281610e4c565b92915050565b600060208284031215610e8e57610e8d610e47565b5b6000610e9c84828501610e63565b91505092915050565b610eae81610cfc565b8114610eb957600080fd5b50565b600081359050610ecb81610ea5565b92915050565b60008060408385031215610ee857610ee7610e47565b5b6000610ef685828601610ebc565b9250506020610f0785828601610e63565b9150509250929050565b600082825260208201905092915050565b7f7573657220646f65736e2774206f776e20616e792077696c6c00000000000000600082015250565b6000610f58601983610f11565b9150610f6382610f22565b602082019050919050565b60006020820190508181036000830152610f8781610f4b565b9050919050565b7f4e487b7100000000000000000000000000000000000000000000000000000000600052603260045260246000fd5b7f4e487b7100000000000000000000000000000000000000000000000000000000600052601160045260246000fd5b6000610ff782610d1d565b91507fffffffffffffffffffffffffffffffffffffffffffffffffffffffffffffffff820361102957611028610fbd565b5b600182019050919050565b7f696e73756666696369656e742066756e64730000000000000000000000000000600082015250565b600061106a601283610f11565b915061107582611034565b602082019050919050565b600060208201905081810360008301526110998161105d565b9050919050565b60006110ab82610d1d565b91506110b683610d1d565b92508282019050808211156110ce576110cd610fbd565b5b92915050565b60006110df82610d1d565b91506110ea83610d1d565b925082820390508181111561110257611101610fbd565b5b92915050565b7f74696d657374616d702068617320616c7265616479206265656e207365740000600082015250565b600061113e601e83610f11565b915061114982611108565b602082019050919050565b6000602082019050818103600083015261116d81611131565b9050919050565b600061117f82610d1d565b915061118a83610d1d565b925082820261119881610d1d565b915082820484148315176111af576111ae610fbd565b5b509291505056fea2646970667358221220b9f30710cd65f7dfea420336efb7cc762ec276653468ecfe5f8aeb9cc3c4fecd64736f6c63430008110033",
  "linkReferences": {},
  "deployedLinkReferences": {}
}